:020000040800F2
:1000000000040020F3100008190300081B03000877
:100010001F03000823030008270300080000000056
:100020000000000000000000000000002B0300089A
:100030002D030008000000002F0300083103000812
:100040001311000813110008131100081311000800
:1000500013110008131100081311000813110008F0
:1000600013110008131100081311000813110008E0
:1000700013110008131100081311000813110008D0
:1000800013110008131100081311000813110008C0
:1000900013110008131100081311000813110008B0
:1000A00013110008131100081311000813110008A0
:1000B0001311000813110008131100081311000890
:1000C0001311000813110008131100081311000880
:1000D000131100086710000813110008131100081D
:1000E000C5030008131100081311000813110008BC
:1000F0001311000813110008131100081311000850
:10010000131100081311000813110008131100083F
:10011000131100081311000813110008131100082F
:10012000131100081311000813110008131100081F
:1001300000F002F800F03FF80AA090E8000C8244BA
:100140008344AAF10107DA4501D100F034F8AFF297
:10015000090EBAE80F0013F0010F18BFFB1A43F0A5
:10016000010318475C1F00007C1F0000103A24BFE9
:1001700078C878C1FAD8520724BF30C830C144BF0C
:1001800004680C607047000000230024002500264E
:10019000103A28BF78C1FBD8520728BF30C148BFEA
:1001A0000B607047642901F08B86002070471FB5F3
:1001B0001FBD10B510BD01F04BFF1146FFF7F7FF53
:1001C00000F008F801F069FF03B4FFF7F2FF03BC89
:1001D00000F0EEFE002400F081FE4FF4A06000F07D
:1001E000ADFF4FF4E13000F0F2FE00F0A3F800F0B4
:1001F000BDF800F0B0FB0020374908606BE03748DD
:10020000007800F04000002865D0002033490870D5
:1002100000F060F932480078012802D002284AD163
:1002200019E02E484088A8B12C48808990B12B480D
:100230004088C8280EDA29488089C8280ADA284860
:10024000017828A001F0FCFD2448828941882AA079
:1002500001F0F6FD30E02148408800282AD01F48F0
:100260008089002826D01D48808818B31B48C08983
:1002700000B31A484088C8281CDA18488089C82862
:1002800018DA16488088C82814DA1448C089C828A3
:1002900010DA1348017813A001F0D2FD0F488289CB
:1002A000418815A001F0CCFD0C48C289818816A0B8
:1002B00001F0C6FD00E000BF00BF002409E00021FE
:1002C0000648801C20F814100A3020F81410601C16
:1002D000C4B2022CF3DB92E7B001234238000020C5
:1002E00014000020B4A5C3FEB5E3B8F6CAFDA3BA56
:1002F0003A25640D0A00000078303A25642C7930E4
:100300003A25640D0A00000078313A25642C7931D1
:100310003A25640D0A000000704700BFFEE700BFE9
:10032000FEE700BFFEE700BFFEE77047704770477B
:100330007047000008B50121402001F089FA4FF410
:100340008050ADF8000010208DF8030003208DF8D8
:1003500002006946044800F0BFFF4FF48051024894
:1003600001F067F808BD0000001801400EB501213A
:10037000084601F06DFA0E21042001F0C3F84FF495
:100380008040019000208DF808000C208DF80900B5
:1003900001208DF80A0001A801F0D0FC4FF4804044
:1003A00001F043FD28208DF8000000208DF80100A9
:1003B00003208DF8020001208DF80300684600F04C
:1003C000C2FE0EBD10B5052000F0A1FD4FF4804126
:1003D000074801F014F848B90648007840F040009A
:1003E000044908704FF4804001F01FFD10BD00006B
:1003F000001801403800002010B5A621382000F078
:10040000D9FC10BD10B50021382000F0D3FC10BD80
:1004100010B50221382000F0CDFC10BD10B503212D
:10042000382000F0C7FC001110BD10B505213820A0
:1004300000F0C0FC001110BD08B56B46022203217C
:10044000382000F0D9FC9DF801009DF8001001F063
:100450000F0140EA012008BD08B56B4602220521C4
:10046000382000F0C9FC9DF801009DF8001001F053
:100470000F0140EA012008BD10B50921382000F025
:1004800099FC001110BD10B50B21382000F092FC32
:10049000001110BD08B56B4602220921382000F07A
:1004A000ABFC9DF801009DF8001001F00F0140EA3F
:1004B000012008BD08B56B4602220B21382000F050
:1004C0009BFC9DF801009DF8001001F00F0140EA2F
:1004D000012008BD3EB5002400200290019000904C
:1004E000012202A9022000F0E3F99DF808003A4930
:1004F000087001226946104600F0DAF99DF80800FC
:1005000000F00F00002850D09DF8080000F00F0107
:10051000FF208840C0433149087000BF3CE02F48AD
:1005200000780121A140084098B32D4911F814002A
:10053000042201A900F0BCF99DF805009DF8041003
:1005400001F00F0100EB01202449891C21F814005F
:100550009DF807009DF8061001F00F0100EB012146
:100560001E480C3020F814109DF8040000F0C00064
:1005700080280FD0002119480C3020F814100A38B8
:1005800020F81410801E007800F0E0001349087075
:100590003EBDFFE7601CC4B2022CC0DB0F480078F0
:1005A00040F080000D49087014E00C48007800F01D
:1005B000800030B10948007820F0800007490870B9
:1005C00008E000200549488088810846007800F04E
:1005D000E000087000BFDBE71400002038000020B6
:1005E000B420000810B5FE48006820F07040FC49B7
:1005F00008600846006840F4807008604915F848B3
:10060000001F00F018FF4FF48061F548001F00F054
:1006100012FF052000F07BFC4FF40071F048001F32
:1006200000F007FF042000F072FC4FF48061EC48FA
:10063000001F00F0FEFE052000F069FC10BD10B5A3
:100640004FF40071E648001F00F0F5FEE448006832
:1006500020F07040E24908600846006840F480706D
:1006600008600915DE48001F00F0E3FE052000F0D9
:100670004EFC4FF40071DA48001F00F0DAFE0A2049
:1006800000F045FC4FF40071D548001F00F0D3FE88
:100690000A2000F03CFC10BD70B50024D048006872
:1006A00020F07040CE4908600846006840F4806041
:1006B0000860002521E04FF40071C948001F00F0D8
:1006C000BAFE0A2000F023FC4FF40071C448001F5A
:1006D00000F0AFFE0A2000F01AFC6006040E4FF492
:1006E0008061BF48001F00F08AFE08B144F0010499
:1006F000052000F00CFC681CC5B2082DDBDB204691
:1007000070BD10B54FF40071B548001F00F093FEA6
:10071000B348006820F07040B1490860084600689E
:1007200040F4807008600915AD48001F00F083FE9A
:10073000052000F0ECFB4FF40071A948001F00F009
:1007400078FE0A2000F0E3FB4FF40071A448001F7C
:1007500000F071FE0A2000F0DAFB4FF48061A0483F
:10076000001F00F066FE10BD10B500244FF480613C
:100770009B48001F00F05DFE9948006820F0704023
:10078000974908600846006840F480600860491591
:100790009348001F00F04DFE0A2000F0B8FB07E070
:1007A000601CC4B2FA2C03DDFFF71CFF012010BD52
:1007B0004FF480618A48001F00F021FE0028EFD12D
:1007C0004FF400718648001F00F035FE0A2000F04B
:1007D0009EFB0020EBE770B504468148006820F0DE
:1007E00070407F4908600846006840F480700860E7
:1007F00049157B48001F00F01EFE002528E004F08C
:10080000800030B14FF480617548001F00F011FE88
:1008100005E04FF480617248001F00F00CFE0A20D2
:1008200000F075FB4FF400716D48001F00F001FEF1
:100830000A2000F06CFB4FF400716948001F00F0C3
:10084000FAFD0A2000F063FB6006040E681CC5B2C6
:10085000082DD4DB70BD10B56148006820F07040F1
:100860005F4908600846006840F480700860091518
:100870005B48001F00F0DDFD4FF400715848001F79
:1008800000F0D7FD0A2000F042FB4FF4806154488D
:10089000001F00F0D0FD052000F039FB4FF400717F
:1008A0004F48001F00F0C7FD0A2000F030FB10BDCC
:1008B0002DE9F04107460D461646FFF7CCFF7020A4
:1008C000FFF789FFFFF750FF3846FFF784FFFFF778
:1008D0004BFFFFF7C0FF7120FFF77DFFFFF744FFDD
:1008E000002406E0FFF7D8FE2855FFF70AFF601C3A
:1008F000C4B2701EA042F5DCFFF7CEFE2855FFF70C
:100900009EFEFFF76FFEBDE8F0812DE9F0418046C5
:100910000D4616460027FFF79EFF7020FFF75BFF8E
:10092000FFF722FF4046FFF756FFFFF71DFF0024A9
:1009300009E0285DFFF74FFFFFF716FF074607B1F5
:1009400003E0601CC4B2B442F3DB00BFFFF74AFE11
:100950003846BDE8F0810EB50121602000F078FF37
:100960004FF48060ADF8000010208DF803000320E4
:100970008DF8020069461A48001F00F0ADFC4FF4E4
:1009800080611748001F00F054FD4FF40070ADF86F
:10099000000010208DF8030003208DF80200694646
:1009A0000F48001F00F098FC4FF400710C48001F26
:1009B00000F03FFD4FF40040ADF8000010208DF82E
:1009C000030003208DF802006946064800F084FC0D
:1009D0004FF40041034800F02CFD4FF4804003E049
:1009E0000414014000180140ADF8000048208DF8C3
:1009F00003006946FE4800F06FFC4FF48070ADF8CC
:100A0000000010208DF8030003208DF802006946D5
:100A1000F84800F061FC4FF48071F64800F009FDE1
:100A20004FF40050ADF8000010208DF803000320B3
:100A30008DF802006946EE4800F04EFC4FF400517C
:100A4000EB4800F0F8FC4FF40041E94800F0F3FCFB
:100A5000322000F080FA4FF40041E54800F0E9FC54
:100A6000642000F078FA4FF48061E24800F0E1FC85
:100A70000A2000F070FA4FF40071DE4800F0D9FC53
:100A80000A2000F068FA00200290012202A9FFF774
:100A90003CFF16200290012202A98020FFF735FFBB
:100AA000012201A98020FFF703FF0E2002900122FE
:100AB00002A98820FFF729FF012201A98820FFF75A
:100AC000F7FE0EBD10B5CB48001D006820F0704049
:100AD000C849091D08600846006840F48070086035
:100AE0000915C44800F0A5FC4FF40071C14800F09E
:100AF000A0FC0A2000F00BFA4FF48061BD4800F022
:100B00009AFC0A2000F003FA4FF40071B94800F093
:100B100092FC10BD10B5B748001D006820F0704071
:100B2000B449091D08600846006840F480700860F8
:100B30004915B04800F07FFC4FF48061AD4800F0EB
:100B40007AFC0A2000F0E3F94FF40071A94800F0A4
:100B500070FC4FF48061A74800F06BFC0A2000F0A5
:100B6000D6F910BD70B50546A248001D006820F0FA
:100B70007040A049091D08600846006840F4807074
:100B8000086049159B4800F056FC002424E005F05D
:100B9000800028B14FF48061964800F04AFC04E0E0
:100BA0004FF48061934800F046FC6806050E0A2069
:100BB00000F0ADF94FF400718E4800F03AFC0A20C5
:100BC00000F0A5F94FF400718A4800F034FC0A20C7
:100BD00000F09DF9601CC4B2082CD8DB4FF4806192
:100BE000844800F026FC0A2000F091F98148001D9D
:100BF000006820F070407F49091D086008460068C1
:100C000040F48060086049157A4800F012FC0A2020
:100C100000F07DF900240CE04FF48061754800F08D
:100C2000EEFB18B1012000F072F900E003E0601C57
:100C3000C4B2642CF0DB00BF4FF400716D4800F0CB
:100C4000FAFB70BD70B500246A48001D006820F0F2
:100C500070406849091D08600846006840F48060DB
:100C6000086000251BE04FF40071624800F0E3FBD0
:100C70000A2000F04CF94FF400715E4800F0D9FBF7
:100C80006006040E4FF480615A4800F0B8FB08B1CA
:100C900044F001040A2000F03AF9681CC5B2082D9E
:100CA000E1DB4FF40071534800F0C5FB5148001DD3
:100CB000006820F070404F49091D08600846006830
:100CC00040F48070086009154A4800F0B2FB0A2021
:100CD00000F01DF94FF40071464800F0AAFB0A200D
:100CE00000F015F94FF40071424800F0A4FB4FF4F6
:100CF0008061404800F09DFB204670BD70B5002427
:100D00003C48001D006820F070403A49091D086009
:100D10000846006840F48060086000251BE04FF43E
:100D20000071344800F087FB0A2000F0F0F84FF41F
:100D30000071304800F07DFB6006040E4FF48061C6
:100D40002C4800F05CFB08B144F001040A2000F0DC
:100D5000DEF8681CC5B2082DE1DB4FF400712548B0
:100D600000F069FB2348001D006820F07040214915
:100D7000091D08600846006840F480700860091585
:100D80001C4800F058FB0A2000F0C1F84FF4007135
:100D9000184800F04EFB0A2000F0B9F84FF400713B
:100DA000144800F048FB4FF48061124800F041FB0A
:100DB000204670BD70B504460D46FFF783FE610600
:100DC000080EFFF7CFFE2846FFF7CCFEFFF7A2FE86
:100DD000FFF778FE012101EB4401C8B2FFF7C2FE24
:100DE000FFF730FF0646FFF795FE304670BD000066
:100DF00000180140001401402DE9F04105460F465E
:100E000090461E46FFF75EFE6906080EFFF7AAFE33
:100E10003846FFF7A7FEFFF77DFEFFF753FE0121DF
:100E200001EB4501C8B2FFF79DFE002404E0FFF787
:100E300065FF3055601CC4B2A8F10100A042F6DC89
:100E4000FFF700FF3055FFF765FEBDE8F08170B594
:100E500004460D461646FFF735FE6106080EFFF7FD
:100E600081FE2846FFF77EFE3046FFF77BFEFFF748
:100E700051FE022000F06FF870BD38B504460D46F3
:100E80006B46022229462046FFF7B6FF9DF8010077
:100E90009DF8001040EA012038BD2DE9F0410546DB
:100EA0000E4617469846FFF70DFE6906080EFFF737
:100EB00059FE3046FFF756FE002405E018F80400FE
:100EC000FFF750FE601CC4B2BC42F7DBFFF722FE06
:100ED000022000F040F8BDE8F081000010B56FF08E
:100EE000040000F07AF92E4800682E49B0FBF1F0BA
:100EF0002D4908700846007800EB4001C1EBC01096
:100F00004FF6FF7101EAC0002849088010BD014674
:100F1000254A12784A434FF0E0235A6100229A6131
:100F20001A46126942F001021A6100BF4FF0E02236
:100F3000106900F001021AB100F48032002AF5D0E5
:100F40004FF0E022126922F001024FF0E0231A6113
:100F500000229A6170470146144A12884A434FF0B2
:100F6000E0235A6100229A611A46126942F0010296
:100F70001A6100BF4FF0E022106900F001021AB1BF
:100F800000F48032002AF5D04FF0E022126922F0FE
:100F900001024FF0E0231A6100229A6170470000BD
:100FA0000000002000127A00160000201800002027
:100FB000014600BF704700BF494A128802F0400254
:100FC000002AF9D0C2B2464B1B1D1A80704710B5DB
:100FD00086B00446012144F2040000F039FC4FF4CD
:100FE0000070ADF8140003208DF8160018208DF85D
:100FF000170005A93B4800F06FF94FF48060ADF889
:10100000140004208DF8170005A9364800F064F993
:1010100025208DF8000003208DF801008DF80200D6
:1010200001208DF80300684600F08DF8019400203F
:10103000ADF80800ADF80A00ADF80C00ADF81000EE
:101040000C20ADF80E0001A9254800F0A8FC0122F3
:1010500040F22551224800F03AFD0121204800F0DD
:101060002AFD06B010BD10B540F225511C4800F015
:1010700013FE10B31A4800F08FFDC4B21A4800885E
:1010800000F40040C8B91848008800F4804060B1FE
:101090000A2C03D000201449088020E01248008860
:1010A00040F400401049088019E00D2C06D10E488C
:1010B000008840F480400C49088010E00A4800880D
:1010C000C0F30D0009490C5407480088401C06492C
:1010D000088008460088C72801DD0020088010BD70
:1010E0000038014000080140200000204E00002090
:1010F00070470B4880470B4981F308880A4800472E
:10110000FEE7FEE7FEE7FEE7FEE7FEE7FEE7FEE7B7
:10111000FEE7FEE705480649064A074B7047000010
:10112000F110000878070020310100087801002044
:10113000780700207803002078030020314901431C
:10114000314A1160704770B5002100230F22C47826
:1011500004B32D4C246804F4E064C4F5E064210A6F
:10116000C1F10403CA40447804FA03F184781440BE
:1011700021430901254C0678A155047804F01F0588
:101180000124AC4005786D11AD0005F1E025C5F8EE
:10119000004109E0047804F01F050124AC401C4D17
:1011A0000678761145F8264070BD1A4A0A40024377
:1011B000154B1B1F1A60704739B1134A121D126874
:1011C0000243114B1B1D1A6006E00F4A121D1268E4
:1011D00082430D4B1B1D1A607047042808D14FF045
:1011E000E021096941F004014FF0E022116107E0BC
:1011F0004FF0E021096921F004014FF0E022116174
:10120000704700000000FA050CED00E000E400E08B
:1012100080E100E080FFFF1F10B50446CC48844207
:1012200008D10121042000F02DFB0021042000F052
:1012300029FB46E0C748844208D10121082000F07C
:1012400021FB0021082000F01DFB3AE0C248844247
:1012500008D10121102000F015FB0021102000F022
:1012600011FB2EE0BD48844208D10121202000F06E
:1012700009FB0021202000F005FB22E0B848844251
:1012800008D10121402000F0FDFA0021402000F0AB
:10129000F9FA16E0B348844208D10121802000F019
:1012A000F1FA0021802000F0EDFA0AE0AE48844215
:1012B00007D10121801500F0E5FA0021A01500F00A
:1012C000E1FA10BD10B50121084600F0DBFA00215B
:1012D000012000F0D7FA10BD2DE9F04102460025AB
:1012E0000026002000230024002791F803C00CF002
:1012F0000F0591F803C00CF0100CBCF1000F03D0E7
:1013000091F802C04CEA050591F800C0BCF1000F4D
:1013100031D0146800202BE04FF0010C0CFA00F3E0
:10132000B1F800C00CEA03069E4220D183004FF0C2
:101330000F0C0CFA03F7BC4305FA03FC4CEA040457
:1013400091F803C0BCF1280F06D14FF0010C0CFA44
:1013500000FCC2F814C00AE091F803C0BCF1480FC9
:1013600005D14FF0010C0CFA00FCC2F810C0401C73
:101370000828D1D31460B1F800C0BCF1FF0F34DDF0
:10138000546800202EE000F1080C4FF0010808FA24
:101390000CF3B1F800C00CEA03069E4221D1830091
:1013A0004FF00F0C0CFA03F7BC4305FA03FC4CEAB0
:1013B000040491F803C0BCF1280F05D100F1080C1A
:1013C00008FA0CF8C2F8148091F803C0BCF1480F79
:1013D00007D100F1080C4FF0010808FA0CF8C2F828
:1013E0001080401C0828CED35460BDE8F0814FF631
:1013F000FF710180022181700421C1707047024693
:10140000002093680B400BB1012000E000207047E2
:101410000146886880B2704702460020D3680B40BE
:101420000BB1012000E0002070470146C86880B27F
:10143000704701617047416170470AB1016100E086
:1014400041617047C16070474FF480320A43826146
:101450008161826182698269704702460020434B44
:1014600018684FF68073184040EA021008433F4B5B
:10147000186070473E49C8617047F0B50A460023BE
:1014800000240021002500F00046B6F1004F02D1F3
:10149000364EF16901E0354E7168C0F3034583B201
:1014A00000F44016B6F5401F08D121F070612F4EB0
:1014B000766826F070662D4F7E6012E000F480168C
:1014C000B6F5801F06D1032606FA05F4A14341F0C4
:1014D000706106E0460D360103FA06F6B14341F0AD
:1014E000706122B1460D360103FA06F6314300F071
:1014F0000046B6F1004F02D11C4EF16101E01B4ED7
:101500007160F0BD30B500228B071C0F0F2303FA6A
:1015100004F2164B08338C1053F824309343134CC9
:1015200008348D1044F8253023468C1053F82430AD
:101530008C07240F00FA04F423430C4C08348D105C
:1015400044F8253030BD0A49DC310860704700009E
:1015500000080140000C014000100140001401404F
:1015600000180140001C0140002001400000014023
:1015700000002042DF48006840F00100DD490860BB
:1015800008464068DC490840DA4948600846006877
:10159000DA490840D74908600846006820F48020EE
:1015A00008600846406820F4FE0048604FF41F00C1
:1015B00088607047CF49096821F48031CD4A1160B5
:1015C0001146096821F480211160B0F5803F03D0F5
:1015D000B0F5802F0ED106E0C649096841F480318C
:1015E000C44A116007E0C349096841F4A021C14A17
:1015F000116000E000BF00BF704710B50146002237
:10160000002300204A11012A02D1BA4C236806E0C7
:10161000022A02D1B74C236A01E0B64C636A01F09A
:101620001F02012494401C400CB1012000E0002066
:1016300010BD38B5002000900024002500BF3120E7
:10164000FFF7DBFF05460098401C00900098B0F5BE
:10165000A06F01D0002DF2D03120FFF7CEFF08B1EE
:10166000012400E00024204638BD01460020A14AA4
:10167000106820F0F80040EAC10010607047A049EF
:1016800008607047024600209A4B586820F47C108E
:1016900042EA01031843974B58607047984908661F
:1016A000704701460020934A506820F00300084329
:1016B000506070478F48406800F00C00704701464A
:1016C00000208C4A506820F0F000084350607047BA
:1016D00001460020874A506820F4E06008435060CB
:1016E000704701460020834A506820F4605040EA69
:1016F000C1005060704729B17E4A527A02437D4B47
:101700005A7204E07B4A527A82437A4B5A7270478B
:101710007B49D8310860704701460020754A5068FF
:1017200020F440400843506070470021714A203245
:101730001170704A82F82010012802D004280AD1C2
:1017400004E001216B4A2032117005E00521694A4D
:101750002032117000E000BF00BF70476949086087
:1017600070476449096A0143624A116270476549DA
:1017700044390860704730B500210022002400235E
:101780005C4D6D6805F00C0121B1042905D00829D4
:1017900023D105E05C4D056022E05B4D05601FE054
:1017A000544D6D6805F47012524D6D6805F4803427
:1017B000022505EB92421CB9544D554305600BE0E0
:1017C0004C4D6D6805F400351DB1504D5543056015
:1017D00002E04D4D5543056002E04B4D056000BFF2
:1017E00000BF444D6D6805F0F0010909484D6B5C80
:1017F0000568DD4045603F4D6D6805F4E061090A0C
:10180000434D6B5C4568DD4085603A4D6D6805F47D
:101810006051C90A3E4D6B5C4568DD40C560354D81
:101820006D6805F44041890B3A4D6B5CC568B5FBAA
:10183000F3F5056130BD29B12E4A526902432D4BA3
:101840005A6104E02B4A526982432A4B5A6170471D
:1018500029B1284A92690243264B9A6104E0254A3D
:1018600092698243234B9A61704729B1214AD26918
:101870000243204BDA6104E01E4AD26982431D4BC9
:10188000DA61704729B11B4AD2680243194BDA600A
:1018900004E0184AD2688243164BDA60704729B1D7
:1018A000144A12690243134B1A6104E0114A126987
:1018B0008243104B1A6170471249403908607047E3
:1018C0000F49C86470470B49C87170470948406A9E
:1018D00040F0807007494862704701460020054A81
:1018E00092680A400AB1012000E0002070470149D7
:1018F00088727047001002400000FFF8FFFFF6FEFC
:10190000000042428004424200127A0000093D0079
:10191000220000203200002010B50446FB4884421B
:1019200009D101218803FFF7ADFF00214FF480406A
:10193000FFF7A8FF32E0F648844209D101214804AC
:10194000FFF7ADFF00214FF40030FFF7A8FF25E0BF
:10195000F048844209D101218804FFF7A0FF00214B
:101960004FF48020FFF79BFF18E0EB48844209D139
:101970000121C804FFF793FF00214FF40020FFF777
:101980008EFF0BE0E548844208D101210805FFF7EE
:1019900086FF00214FF48010FFF781FF10BD2DE975
:1019A000F04786B005460E460024A24600BFA14679
:1019B0000027B08900B100BF2F462C8A4CF6FF707B
:1019C0000440F08804432C82AC894EF6F3100440A6
:1019D000B08831890843718908430443AC81AC8ADB
:1019E0004FF6FF400440B0890443AC8201A8FFF7E2
:1019F000C2FEC648874202D1DDF810A001E0DDF842
:101A00000CA0A88900F4004040B10AEBCA0000EB2A
:101A10000A1031684900B0FBF1F807E00AEBCA0090
:101A200000EB0A1031688900B0FBF1F86420B8FBC4
:101A3000F0F004012009642101FB1089A88900F459
:101A4000004040B1322000EBC900B0FBF1F000F0E3
:101A50000700044308E0322000EB09106421B0FBCA
:101A6000F1F000F00F0004432C8106B0BDE8F087D0
:101A70004FF41651016000218180C18001810C2149
:101A8000418100218181704710B502460020108AF3
:101A90004FF2FF0318400B884C8823438C88234364
:101AA000CC8823431843108210BD0021018041805F
:101AB0008180C180704721B1828942F400528281C5
:101AC00004E082894DF6FF731A4082817047F0B5B9
:101AD0000346002400260025002040F66A17B9427C
:101AE00000D100BF1846C1F3421401F01F060127C0
:101AF00007FA06F5012C01D10C3004E0022C01D1CB
:101B0000103000E014301AB107682F43076002E07C
:101B10000768AF430760F0BD1AB1838A0B43838225
:101B200002E0838A8B4383827047028A4FF6F07308
:101B30001A400282028A0A430282704782894FF267
:101B4000FF731A40828182890A438281704721B1E2
:101B5000828942F00202828104E082894FF6FD739D
:101B60001A4082817047028A4FF6DF731A40028260
:101B7000028A0A430282704721B1028A42F48042FB
:101B8000028204E0028A4BF6FF731A400282704719
:101B9000C1F308028280704701468888C0F30800BC
:101BA0007047818941F0010181817047028BD2B277
:101BB0000283028B42EA012202837047028B02F405
:101BC0007F420283028B0A430283704721B1828ADB
:101BD00042F02002828204E0828A4FF6DF731A40CC
:101BE0008282704721B1828A42F01002828204E030
:101BF000828A4FF6EF731A408282704721B1828A3F
:101C000042F00802828204E0828A4FF6F7731A409B
:101C10008282704721B1828942F40042828103E0CE
:101C20008289C2F30E028281704721B1828A42F416
:101C30000062828204E0828A4FF2FF731A4082823D
:101C40007047828A4FF6FB731A408282828A0A4367
:101C50008282704721B1828A42F00202828204E0CD
:101C6000828A4FF6FD731A40828270470246002036
:101C7000B1F5007F00D100BF13880B400BB10120EC
:101C800000E00020704701F40072B2F5007F00D13F
:101C900000BFCA430280704770B50246002400238B
:101CA0000025002040F66A16B14200D100BFC1F302
:101CB000421501F01F03012606FA03F3012D02D19C
:101CC0009689334006E0022D02D1168A334001E0A6
:101CD000968A33400C12012606FA04F41688344022
:101CE00013B10CB1012000E0002070BD10B500223E
:101CF000002340F66A14A14200D100BF0A12012459
:101D00009440A3B2DC43048010BD000000380140C1
:101D10000044004000480040004C0040005000409B
:101D2000002044490860091D0860091D0860091D5C
:101D3000086041483F4914310860704700213D491F
:101D40008279002A3AD00A46126803689A430B4601
:101D50001A600A1D126803689A430B1D1A60027903
:101D600011440A6803681A430A60324A083212684A
:101D700003689A432F4B08331A601A1D12680368D0
:101D80009A432C4B0C331A604279102A0ED11A1F39
:101D9000126803681A43274B08331A601A1D126829
:101DA00003681A43234B0C331A600DE02149427932
:101DB00011440A6803681A430A6005E00279114475
:101DC0000A6803689A430A60704700210160017144
:101DD0000C21417100218171704716491031096849
:101DE0000143144A10321160704701460020114A25
:101DF000143212680A400AB1012000E00020704746
:101E00000C49143108607047014600200022094B3C
:101E10001B6803EA0102074B14331B680B4013B124
:101E20000AB1012000E00020704702491431086027
:101E30007047000000040140FFFF0F0070470000E2
:101E40000FB4044910B503AA029800F0D3F810BCEF
:101E50005DF814FB1C0000202DE9F0410E460446FD
:101E6000002020622046E168884730B3252805D04D
:101E7000D4E901219047206A401CF2E7E16820463E
:101E800000278847050018D0A5F14100192802D87D
:101E900020354FF400673246294620462760FEF77A
:101EA00081F940B1012804D0F61D26F00706083656
:101EB000D8E7361DD6E72846DAE7206ABDE8F08184
:101EC0002DE9F0410646002410687529314616A513
:101ED00010D0AFF30080002802DA404213A507E0DB
:101EE00031688A0701D512A502E0490704D511A57A
:101EF000012401E0AFF3008000210A2206F124074B
:101F000009E0B0FBF2FCB0FBF2F302FB1C00303046
:101F100078541846491C0028F3D123462A463046F7
:101F2000BDE8F04100F00CB8000000002D000000FA
:101F30002B0000002000000070477047704770477A
:101F40002DE9F0470D4699469246044600F12408D3
:101F50000168880604D5E06921F01001216000E0E5
:101F60000120A84201DD471B00E00027A1697A1982
:101F700002EB0900081AA0612078C00602D42046AE
:101F8000AFF30080002608E0D4E901211AF806002A
:101F90009047206A401C761C20624E45F4DB207876
:101FA000C0060AD52046AFF3008006E0D4E901213F
:101FB00030209047206A401C2062381EA7F101079C
:101FC000F4DC07E0D4E9012118F805009047206A05
:101FD000401C2062281EA5F10105F3DC2046AFF36A
:101FE00000802078000602D50220BDE8F08701209D
:101FF000FBE70000074B70B50D467B4400F011F87D
:102000000446284600F020F810B14FF0FF3070BDB4
:10201000204670BDB9EFFFFF01694A1C02610878D4
:10202000704700B58FB0CDE9013100210591054918
:102030007944CDE9031011466846FFF70DFF0FB054
:1020400000BD0000E5FFFFFF007B00F0800070474F
:10205000754600F02BF8AE4605006946534620F061
:102060000700854618B020B5FFF754F8BDE82040BA
:102070004FF000064FF000074FF000084FF0000B44
:1020800021F00701AC46ACE8C009ACE8C009ACE8F7
:10209000C009ACE8C0098D46704710B50446AFF3DF
:1020A00000802046BDE81040FEF78EB8004870471B
:1020B00018010020030009000F0015001B0000009C
:1020C000E020000800000020380000006C0100083B
:1020D000182100083800002040070000880100088F
:1020E00000A24A04000000000000000001020304F6
:1020F00006070809000000000000000000000000C2
:1021000000000000000001020304010203040607AE
:082110000809020406080000A2
:0400000508000131BD
:00000001FF
